{"abi":[{"type":"function","name":"greet","inputs":[],"outputs":[{"name":"","type":"string","internalType":"string"}],"stateMutability":"view"},{"type":"function","name":"messenger","inputs":[],"outputs":[{"name":"","type":"address","internalType":"contract IL2ToL2CrossDomainMessenger"}],"stateMutability":"view"},{"type":"function","name":"setGreeting","inputs":[{"name":"_greeting","type":"string","internalType":"string"}],"outputs":[],"stateMutability":"nonpayable"},{"type":"event","name":"CrossDomainSetGreeting","inputs":[{"name":"sender","type":"address","indexed":true,"internalType":"address"},{"name":"chainId","type":"uint256","indexed":true,"internalType":"uint256"},{"name":"greeting","type":"string","indexed":false,"internalType":"string"}],"anonymous":false},{"type":"event","name":"SetGreeting","inputs":[{"name":"sender","type":"address","indexed":true,"internalType":"address"},{"name":"greeting","type":"string","indexed":false,"internalType":"string"}],"anonymous":false}],"bytecode":{"object":"0x60a06040527342000000000000000000000000000000000000236080523480156026575f5ffd5b506080516105116100455f395f81816048015261011101526105115ff3fe608060405234801561000f575f5ffd5b506004361061003f575f3560e01c80633cb747bf14610043578063a413686214610087578063cfae32171461009c575b5f5ffd5b61006a7f000000000000000000000000000000000000000000000000000000000000000081565b6040516001600160a01b0390911681526020015b60405180910390f35b61009a61009536600461027d565b6100b1565b005b6100a46101da565b60405161007e9190610330565b5f6100bc82826103e9565b50336001600160a01b03167ffae51f5480b362c362b5f790e2a1b86b677c562bf1c1db0094505abfe05ef911826040516100f69190610330565b60405180910390a26022602160991b011933016101d7575f5f7f00000000000000000000000000000000000000000000000000000000000000006001600160a01b0316637936cbee6040518163ffffffff1660e01b81526004016040805180830381865afa15801561016a573d5f5f3e3d5ffd5b505050506040513d601f19601f8201168201806040525081019061018e91906104a4565b9150915080826001600160a01b03167fcb64a13e8b393f82801bf1ade2a7f9e9b3ce7c8fea62879f927ef9aa7d8a4526856040516101cc9190610330565b60405180910390a350505b50565b60605f80546101e890610365565b80601f016020809104026020016040519081016040528092919081815260200182805461021490610365565b801561025f5780601f106102365761010080835404028352916020019161025f565b820191905f5260205f20905b81548152906001019060200180831161024257829003601f168201915b5050505050905090565b634e487b7160e01b5f52604160045260245ffd5b5f6020828403121561028d575f5ffd5b813567ffffffffffffffff8111156102a3575f5ffd5b8201601f810184136102b3575f5ffd5b803567ffffffffffffffff8111156102cd576102cd610269565b604051601f8201601f19908116603f0116810167ffffffffffffffff811182821017156102fc576102fc610269565b604052818152828201602001861015610313575f5ffd5b816020840160208301375f91810160200191909152949350505050565b602081525f82518060208401528060208501604085015e5f604082850101526040601f19601f83011684010191505092915050565b600181811c9082168061037957607f821691505b60208210810361039757634e487b7160e01b5f52602260045260245ffd5b50919050565b601f8211156103e457805f5260205f20601f840160051c810160208510156103c25750805b601f840160051c820191505b818110156103e1575f81556001016103ce565b50505b505050565b815167ffffffffffffffff81111561040357610403610269565b610417816104118454610365565b8461039d565b6020601f821160018114610449575f83156104325750848201515b5f19600385901b1c1916600184901b1784556103e1565b5f84815260208120601f198516915b828110156104785787850151825560209485019460019092019101610458565b508482101561049557868401515f19600387901b60f8161c191681555b50505050600190811b01905550565b5f5f604083850312156104b5575f5ffd5b82516001600160a01b03811681146104cb575f5ffd5b602093909301519294929350505056fea2646970667358221220a614fbc07341515dda8ff4f8d06c8f392b6ad89022d9b016d732ad28c182031264736f6c634300081c0033","linkReferences":{}},"methodIdentifiers":{"greet()":"cfae3217","messenger()":"3cb747bf","setGreeting(string)":"a4136862"},"id":2}