{"abi":[{"type":"constructor","inputs":[{"name":"_greeterAddress","type":"address","internalType":"address"},{"name":"_greeterChainId","type":"uint256","internalType":"uint256"}],"stateMutability":"nonpayable"},{"type":"function","name":"messenger","inputs":[],"outputs":[{"name":"","type":"address","internalType":"contract IL2ToL2CrossDomainMessenger"}],"stateMutability":"view"},{"type":"function","name":"setGreeting","inputs":[{"name":"greeting","type":"string","internalType":"string"}],"outputs":[],"stateMutability":"nonpayable"}],"bytecode":{"object":"0x60e0604052734200000000000000000000000000000000000023608052348015610027575f5ffd5b506040516106693803806106698339810160408190526100469161005c565b6001600160a01b0390911660a05260c052610093565b5f5f6040838503121561006d575f5ffd5b82516001600160a01b0381168114610083575f5ffd5b6020939093015192949293505050565b60805160a05160c0516105916100d85f395f8181610180015261023301525f818161012d015261025501525f8181603d015281816101cb015261020601526105915ff3fe608060405234801561000f575f5ffd5b5060043610610034575f3560e01c80633cb747bf14610038578063a41368621461007b575b5f5ffd5b61005f7f000000000000000000000000000000000000000000000000000000000000000081565b6040516001600160a01b03909116815260200160405180910390f35b61008e6100893660046103e5565b610090565b005b5f82826040516024016100a4929190610453565b60408051601f19818403018152918152602080830180516001600160e01b0316635209b43160e11b1790528151808301909252600f82526e1b595cdcd859d94818dc99585d1959608a1b908201529091506100fe906102f2565b61015160405180604001604052806011815260200170033b932b2ba32b91030b2323932b9b99d1607d1b8152507f0000000000000000000000000000000000000000000000000000000000000000610338565b6101a460405180604001604052806011815260200170033b932b2ba32b91031b430b4b724b21d1607d1b8152507f0000000000000000000000000000000000000000000000000000000000000000610381565b6101ef6040518060400160405280600981526020016836b2b9b9b2b733b2b960b91b8152507f0000000000000000000000000000000000000000000000000000000000000000610338565b604051637056f41f60e01b81526001600160a01b037f00000000000000000000000000000000000000000000000000000000000000001690637056f41f9061027f907f0000000000000000000000000000000000000000000000000000000000000000907f00000000000000000000000000000000000000000000000000000000000000009086906004016104af565b6020604051808303815f875af115801561029b573d5f5f3e3d5ffd5b505050506040513d601f19601f820116820180604052508101906102bf91906104e1565b506102ed6040518060400160405280600c81526020016b1b595cdcd859d9481cd95b9d60a21b8152506102f2565b505050565b6103358160405160240161030691906104f8565b60408051601f198184030181529190526020810180516001600160e01b031663104c13eb60e21b1790526103c2565b50565b61037d828260405160240161034e929190610511565b60408051601f198184030181529190526020810180516001600160e01b031663319af33360e01b1790526103c2565b5050565b61037d828260405160240161039792919061053a565b60408051601f198184030181529190526020810180516001600160e01b0316632d839cb360e21b1790525b610335815f6a636f6e736f6c652e6c6f6790505f5f835160208501845afa505050565b5f5f602083850312156103f6575f5ffd5b823567ffffffffffffffff81111561040c575f5ffd5b8301601f8101851361041c575f5ffd5b803567ffffffffffffffff811115610432575f5ffd5b856020828401011115610443575f5ffd5b6020919091019590945092505050565b60208152816020820152818360408301375f818301604090810191909152601f909201601f19160101919050565b5f81518084528060208401602086015e5f602082860101526020601f19601f83011685010191505092915050565b8381526001600160a01b03831660208201526060604082018190525f906104d890830184610481565b95945050505050565b5f602082840312156104f1575f5ffd5b5051919050565b602081525f61050a6020830184610481565b9392505050565b604081525f6105236040830185610481565b905060018060a01b03831660208301529392505050565b604081525f61054c6040830185610481565b9050826020830152939250505056fea2646970667358221220faff9274e371e3d46543ef3a54b8b9c98ca422f3f59a3545c7dda6898a93301f64736f6c634300081c0033","linkReferences":{}},"methodIdentifiers":{"messenger()":"3cb747bf","setGreeting(string)":"a4136862"},"id":4}